{
  "_format": "hh-sol-artifact-1",
  "contractName": "ETHVault",
  "sourceName": "contracts/SimpleGraph.sol",
  "abi": [
    {
      "anonymous": false,
      "inputs": [
        {
          "indexed": true,
          "internalType": "address",
          "name": "from",
          "type": "address"
        },
        {
          "indexed": false,
          "internalType": "uint256",
          "name": "amount",
          "type": "uint256"
        },
        {
          "indexed": false,
          "internalType": "string",
          "name": "note",
          "type": "string"
        }
      ],
      "name": "Deposit",
      "type": "event"
    },
    {
      "inputs": [
        {
          "internalType": "string",
          "name": "note",
          "type": "string"
        }
      ],
      "name": "deposit",
      "outputs": [],
      "stateMutability": "payable",
      "type": "function"
    },
    {
      "inputs": [],
      "name": "getBalance",
      "outputs": [
        {
          "internalType": "uint256",
          "name": "",
          "type": "uint256"
        }
      ],
      "stateMutability": "view",
      "type": "function"
    },
    {
      "inputs": [
        {
          "internalType": "address payable",
          "name": "to",
          "type": "address"
        },
        {
          "internalType": "uint256",
          "name": "amount",
          "type": "uint256"
        }
      ],
      "name": "withdraw",
      "outputs": [],
      "stateMutability": "nonpayable",
      "type": "function"
    }
  ],
  "bytecode": "0x608060405234801561001057600080fd5b506102b2806100206000396000f3fe6080604052600436106100345760003560e01c806312065fe014610039578063a26e118614610059578063f3fef3a31461006e575b600080fd5b34801561004557600080fd5b504760405190815260200160405180910390f35b61006c61006736600461019c565b61008e565b005b34801561007a57600080fd5b5061006c61008936600461020e565b61011c565b600034116100d35760405162461bcd60e51b815260206004820152600d60248201526c09aeae6e840e6cadcc8408aa89609b1b60448201526064015b60405180910390fd5b336001600160a01b03167f643e927b32d5bfd08eccd2fcbd97057ad413850f857a2359639114e8e8dd3d7b34848460405161011093929190610246565b60405180910390a25050565b478111156101615760405162461bcd60e51b81526020600482015260126024820152714e6f7420656e6f7567682062616c616e636560701b60448201526064016100ca565b6040516001600160a01b0383169082156108fc029083906000818181858888f19350505050158015610197573d6000803e3d6000fd5b505050565b600080602083850312156101af57600080fd5b823567ffffffffffffffff808211156101c757600080fd5b818501915085601f8301126101db57600080fd5b8135818111156101ea57600080fd5b8660208285010111156101fc57600080fd5b60209290920196919550909350505050565b6000806040838503121561022157600080fd5b82356001600160a01b038116811461023857600080fd5b946020939093013593505050565b83815260406020820152816040820152818360608301376000818301606090810191909152601f909201601f191601019291505056fea2646970667358221220ac51c1d604cb36a6f69ad026668326c0e03dae022ab1e877f6dd435f1dc6b9f464736f6c63430008140033",
  "linkReferences": {},
  "deployedLinkReferences": {}
}